:020000040800F2
:100000000000022065030008B5030008B5030008DE
:10001000B5030008B5030008B503000800000000A0
:10002000000000000000000000000000B503000810
:10003000B503000800000000B5030008B503000880
:10004000B5030008B5030008B5030008B5030008B0
:10005000B5030008B5030008B5030008B5030008A0
:10006000B5030008B5030008B5030008B503000890
:10007000B5030008B5030008B5030008B503000880
:10008000B5030008B5030008B5030008B503000870
:10009000B5030008B5030008B5030008B503000860
:1000A000B5030008B5030008B5030008B503000850
:1000B000B5030008B5030008B5030008B503000840
:1000C000B5030008B5030008B5030008B503000830
:1000D000B5030008B5030008B5030008B503000820
:1000E000B5030008B5030008B5030008B503000810
:1000F000B5030008B5030008B5030008B503000800
:10010000B5030008B5030008B5030008B5030008EF
:10011000B5030008B5030008B5030008B5030008DF
:10012000B5030008B5030008B5030008B5030008CF
:10013000B5030008B5030008B5030008B5030008BF
:10014000B5030008B5030008B5030008B5030008AF
:10015000B5030008B5030008B5030008B50300089F
:10016000B5030008B5030008B5030008B50300088F
:10017000B5030008B5030008B5030008000000003F
:08018000B5030008B5030008F7
:1001880010B5054C237833B9044B13B10448AFF3C9
:1001980000800123237010BD2C0400200000000003
:1001A800800800080C4B43B10C480D4910B5AFF35B
:1001B80000800C48036823B910BD0A48036833B9A6
:1001C8007047094B002BF7D0BDE810401847064B85
:1001D800002BF5D0184700BF000000008008000879
:1001E800300400202C0400200000000070B50F4EE1
:1001F8000F4D761BB61018BF002405D0013455F8F2
:10020800043B9847A642F9D10A4E0B4D761B00F0E5
:1002180033FBB61018BF002406D0013455F8043B50
:100228009847A642F9D170BD70BD00BF9808000874
:1002380098080008A008000898080008024B13B1A5
:10024800024800F005B87047000000006502000889
:10025800002301461A46184600F01EB838B50A4C65
:100268000A4D641BA4100AD004F18043013B05EB3E
:100278008305013C55F804399847002CF9D1BDE8AD
:10028800384000F0FFBA00BFA4080008A008000822
:10029800704700BF704700BF2DE9F8432C4D064654
:1002A800286898460F469146FFF7F2FF294B1C68CD
:1002B800D4F84831002B3ED05A681F2A1CDC02F1C2
:1002C800010E76B103EB82010124C1F88890D3F8BE
:1002D800880194402043022EC3F88801C1F80881A0
:1002E80023D00232C3F804E0286843F82270FFF7ED
:1002F800D1FF0020BDE8F883174B0BB34FF4C8704B
:10030800AFF300800346D8B1D4F848210260002139
:1003180041600A46C4F848014FF0010EC0F8881140
:10032800C0F88C11002EDCD0CCE7D3F88C110C432C
:10033800C3F88C41D5E704F5A673C4F84831BBE788
:100348002868FFF7A7FF4FF0FF30BDE8F88300BF2C
:10035800280400207C08000800000000DFF834D0E2
:10036800002103E00C4B5B58435004310B480C4B05
:1003780042189A42F6D30B4A02E0002342F8043BA3
:10038800094B9A42F9D300F013F8FFF72FFF00F05A
:100398003DFA704700000220A40800080000002071
:1003A8002C0400202C04002070040020FEE700002C
:1003B80080B500AF124A124B1B6843F0010313606B
:1003C8000F4B00229A600E4A0D4B1B6823F0847372
:1003D80023F4803313600A4B0A4A5A60084A084BD0
:1003E8001B6823F480231360054B0022DA6000F0B9
:1003F8000DF8054B4FF000629A6000BF80BD00BF4A
:10040800003802401030002400ED00E080B483B0D2
:1004180000AF00237B6000233B60354A344B1B68E8
:1004280043F480331360324B1B6803F400333B60A2
:100438007B6801337B603B68002B03D17B68B3F595
:10044800A04FF0D12A4B1B6803F40033002B02D0D5
:1004580001233B6001E000233B603B68012B42D154
:10046800234A234B1B6C43F080531364214A214BCE
:100478001B6843F4404313601D4A1D4B9B689360FF
:100488001B4A1B4B9B6843F400439360184A184B64
:100498009B6843F4A0539360154B174A5A60144A5B
:1004A800134B1B6843F08073136000BF104B1B682D
:1004B80003F00073002BF9D0104B40F205721A605C
:1004C8000B4A0B4B9B6823F003039360084A084BC5
:1004D8009B6843F00203936000BF054B9B6803F0E1
:1004E8000C03082BF9D100BF0C37BD4680BC704700
:1004F800003802400070004008544007003C0240A9
:1005080080B483B000AF78607B68042B06D1094AB9
:10051800084B1B6843F00403136005E0054A054BCC
:100528001B6823F00403136000BF0C37BD4680BC72
:10053800704700BF10E000E080B487B000AF78607B
:10054800396000237B6100233B610023FB600023AB
:100558007B6176E001227B6902FA03F33B613B6829
:100568001A683B691340FB60FA683B699A4265D197
:100578007B681A687B695B00032101FA03F3DB439C
:100588001A407B681A607B681A683B681B791946B1
:100598007B695B0001FA03F31A437B681A603B68C6
:1005A8001B79012B03D03B681B79022B2ED17B686A
:1005B8009A687B695B00032101FA03F3DB431A4065
:1005C8007B689A607B689A683B685B7919467B69A7
:1005D8005B0001FA03F31A437B689A607B685A68E8
:1005E8007B699BB2194601238B40DB431A407B6829
:1005F8005A607B685B683A68927911467A6992B268
:1006080001FA02F292B21A437B685A607B68DA6890
:100618007B699BB25B00032101FA03F3DB431A40B9
:100628007B68DA607B68DA683B68DB7919467B6946
:100638005B0001FA03F31A437B68DA607B690133D4
:100648007B617B690F2B85D900BF1C37BD4680BCF9
:10065800704780B483B000AF78600B467B807B68BE
:100668007A881A8300BF0C37BD4680BC70470000EB
:1006780080B483B000AF78600B46FB70FB78002B2A
:1006880006D00949084B1A6B7B6813430B6306E0D5
:100698000549054B1A6B7B68DB4313400B6300BFAE
:1006A8000C37BD4680BC70470038024080B582B028
:1006B80000AF01215020FFF7DBFF18233B60012327
:1006C8003B710023BB7103237B710123FB713B4604
:1006D80019460C48FFF730FF18210A48FFF7B9FF01
:1006E8004FF400733B603B4619460748FFF724FF69
:1006F8004FF400710448FFF7ACFF00BF0837BD4650
:1007080080BD00BF001002400018024080B500AF55
:100718006FF00400FFF7F4FE084B15221A70074B20
:100728001B789BB21A465201D21A92001344DB007E
:100738009AB2034B1A8000BF80BD00BF4804002056
:100748004A04002080B485B000AF0346FB80154AF8
:10075800FB881549098801FB03F35360114B0022FC
:100768009A60104A0F4B1B6843F0010313600D4B4E
:100778001B68FB60FB6803F00103002B04D0FB68D7
:1007880003F48033002BF2D0064A064B1B6823F093
:1007980001031360034B00229A6000BF1437BD4663
:1007A80080BC704710E000E04A04002080B584B0A7
:1007B80000AF0346FB80FB88134AA2FB03235B0AB6
:1007C8009BB2FB73FB88104AA2FB0312520A4FF438
:1007D800077101FB02F29B1ABB8106E04FF4077018
:1007E800FFF7B0FFFB7B013BFB73FB7B002BF5D1D5
:1007F800BB89002B03D0BB891846FFF7A3FF00BFB6
:100808001037BD4680BD00BF49D6B9F280B500AFEC
:10081800FFF77CFFFFF74AFF134B00221A60134BC8
:1008280001221A60124B01221A604FF4FA70FFF786
:10083800BDFF0D4B01221A600C4B00221A600C4BB5
:1008480001221A604FF4FA70FFF7B0FF064B01223D
:100858001A60064B01221A60054B00221A604FF4F9
:10086800FA70FFF7A3FFD7E78C0242429002424298
:10087800A402434200000020F8B500BFF8BC08BC41
:100888009E467047F8B500BFF8BC08BC9E46704746
:0808980045020008AD01000853
:0408A00089010008C2
:1008A40000000000EC02002054030020BC030020E0
:1008B4000000000000000000000000000000000034
:1008C4000000000000000000000000000000000024
:1008D4000000000000000000000000000000000014
:1008E4000000000000000000000000000000000004
:1008F40000000000000000000000000000000000F4
:1009040000000000000000000000000000000000E3
:1009140000000000000000000000000000000000D3
:1009240000000000000000000000000000000000C3
:1009340000000000000000000000000000000000B3
:1009440000000000000000000100000000000000A2
:100954000E33CDAB34126DE6ECDE05000B00000067
:100964000000000000000000000000000000000083
:100974000000000000000000000000000000000073
:100984000000000000000000000000000000000063
:100994000000000000000000000000000000000053
:0C0CC40000000000000000004C040020B4
:040000050800036587
:00000001FF
